:100000000C942A000C9452000C9471000C949000F3
:100010000C9434000C9434000C9434000C94340090
:100020000C9434000C9434000C9434000C94340080
:100030000C9434000C9434000C9434000C94340070
:100040000C9434000C9434000C9434000C94340060
:100050000C94340011241FBECFE5D8E0DEBFCDBF25
:100060000E944F000C94AF000C94000081B380629A
:1000700081BB81B3806481BB81B3806881BB85B75C
:10008000807F85BF85B78D6085BF84B78F7B84BF38
:100090008BB7806E8BBF8FB780688FBF08950E942B
:1000A0003600FFCF1F920F920FB60F9211242F939D
:1000B0008F939F9382B3806282BB2FEF84E39CE097
:1000C000215080409040E1F700C0000082B38F7D56
:1000D00082BB9F918F912F910F900FBE0F901F9019
:1000E00018951F920F920FB60F9211242F938F9392
:1000F0009F9382B3806482BB2FEF84E39CE0215006
:1001000080409040E1F700C0000082B38F7B82BB4B
:100110009F918F912F910F900FBE0F901F90189568
:100120001F920F920FB60F9211242F938F939F93CC
:1001300082B3806882BB2FEF84E39CE02150804033
:100140009040E1F700C0000082B38F7782BB9F919F
:100150008F912F910F900FBE0F901F901895F894CC
:02016000FFCFCF
:00000001FF
