S01000004750494F5F4C41422E73726563B7
S11300000C942A000C9447000C9447000C9447006D
S11300100C9447000C9447000C9447000C94470040
S11300200C9447000C9447000C9447000C94470030
S11300300C9447000C9447000C9447000C94470020
S11300400C9447000C9447000C9447000C94470010
S11300500C94470011241FBECFE5D8E0DEBFCDBF0E
S113006010E0A0E6B0E0ECE1F2E002C005900D92F1
S1130070AA36B107D9F720E0AAE6B0E001C01D9284
S1130080AB36B207E1F70E9493000C940C010C9478
S113009000008AB39BB38E6F9BBB8ABB87B398B3B4
S11300A0816098BB87BB15BA14BA84B395B3876EC5
S11300B095BB84BB85B396B3886096BB85BB089516
S11300C090E02EC025B336B3206436BB25BB25B3E0
S11300D036B32F7736BB25BBE82FF0E0E05AFF4F4D
S11300E0208130E03CBB2BBBEFE1FEE43197F1F71C
S11300F000C0000025B336B32F7B36BB25BB25B328
S113010036B3206836BB25BB2091600030E03CBB91
S11301102BBBEFE1FEE43197F1F700C000009F5FD5
S1130120891780F608950E94490010926A00809110
S11301306A000E94600083B394B383FDF8CF80917A
S11301406A00811113C085B396B3816096BB85BBE9
S11301508FE19EE40197F1F700C0000080916A00EE
S11301608F5F80936A000E946000E1CF80916A00F3
S1130170813099F485B396B3826096BB85BB8FE1D9
S11301809EE40197F1F700C0000080916A008F5F40
S113019080936A000E946000CACF80916A00823016
S11301A031F685B396B3846096BB85BB8FE19EE43C
S11301B00197F1F700C0000080916A008F5F80937F
S11301C06A000E94600080916A000E94600085B30A
S11301D096B3806296BB85BB9FE729EA83E0915082
S11301E020408040E1F700C0000085B396B38F7DC6
S11301F096BB85BB85B396B38E7F96BB85BB85B313
S113020096B38D7F96BB85BB85B396B38B7F96BB28
S10F021085BB10926A008BCFF894FFCFDE
S10D021C7E0CB69ECCDAFA0EFEDE6C
S9030000FC
