:020000040800F2
:1000000000100020640100086B0100086B0100086B
:100010006B0100086B0100086B0100086B01000810
:100020006B0100086B0100086B0100086B01000800
:100030006B0100086B0100086B0100086B010008F0
:100040006B01000880B500AF002000F025F8FA230E
:100050009B00181C00F006F8012000F01DF8BD46BA
:1000600080BDC04680B582B000AF786002E07B689A
:10007000013B7B607B68002BF9D1BD4602B080BD9F
:1000800080B500AF034B1B681A1CFF231340181CDC
:10009000BD4680BD0808014080B582B000AF7860E1
:1000A0007B68012B07D10A4B094A1268802189011C
:1000B0000A431A6008E07B68002B05D1044B044A10
:1000C0001168044A0A401A60BD4602B080BDC046AD
:1000D0000C080140FFDFFFFF80B500AF0E4B0E4A5A
:1000E000126804210A431A600C4B0C4A11680C4A2E
:1000F0000A401A60094B094A12681A60094B094AFA
:100100001168074A0A401A60064B064A12680649F7
:100110000A431A60BD4680BD181002400008014025
:10012000FFFF0FFF040801402222222280B500AF0A
:10013000FFF7D2FF0120FFF7AFFFFFF7A1FF031C7E
:100140001A1C074B1A60064B1B68142B01D9FFF7CA
:1001500079FFFA239B00181CFFF784FFEDE7C046E8
:0C01600000000020FFF7E2FFFEE7FBE7D5
:0400000508000000EF
:00000001FF
