:1000000000400020DD000000D1000000D100000011
:10001000D1000000D100000080B483B000AF4EF2E8
:100020000813C4F20F034FF020021A604FF00003D0
:100030007B6003E07B6803F101037B607B68C72B77
:10004000F8D94FF4A843C4F202034FF4A842C4F213
:100050000202126842F008021A6045F21C53C4F210
:10006000020345F21C52C4F20202126842F0080276
:100070001A6045F2FC33C4F2020345F2FC32C4F2CA
:100080000202126842F008021A604FF000037B601F
:1000900003E07B6803F101037B607B68C72BF8D921
:1000A00045F2FC33C4F2020345F2FC32C4F2020210
:1000B000126822F008021A604FF000037B6003E030
:1000C0007B6803F101037B607B68C72BF8D9D0E71D
:1000D00080B500AF00F002F880BD00BF80B586B0EB
:1000E00000AF40F20003C2F20003DBB21A4640F256
:1000F0000003C2F20003DBB2D31ABB6040F29413D8
:10010000C0F200037B6140F20003C2F200033B61D6
:100110004FF00003FB600FE07B691A783B691A70AF
:100120003B6903F101033B617B6903F101037B61DF
:10013000FB6803F10103FB60FA68BB689A42EBD3EA
:1001400040F60002C2F2000240F20003C2F20003D5
:10015000D31A7B6040F20003C2F200033B614FF010
:100160000003FB600BE03B694FF000021A703B6933
:1001700003F101033B61FB6803F10103FB60FA68D3
:100180007B689A42EFD3FFF747FF07F11807BD4698
:0401900080BD00BF6F
:00000001FF
