:100000000C942A000C9458000C9473000C948E00ED
:100010000C9434000C9434000C9434000C94340090
:100020000C9434000C9434000C9434000C94340080
:100030000C9434000C9434000C9434000C94340070
:100040000C9434000C9434000C9434000C94340060
:100050000C94340011241FBECFE5D8E0DEBFCDBF25
:100060000E944C000C94A9000C94000081B38062A3
:1000700081BB81B3806481BB81B3806881BB85B75C
:100080008D6085BF84B78F7B84BF8BB7806E8BBF3D
:100090008FB780688FBF08950E94360081B38F7D2F
:1000A00081BB81B38F7B81BB81B38F7781BBF6CF5F
:1000B0001F920F920FB60F9211242F938F939F933D
:1000C00082B3806282BB80E090E001C001968838F4
:1000D00023E19207DCF39F918F912F910F900FBE38
:1000E0000F901F9018951F920F920FB60F92112428
:1000F0002F938F939F9382B3806482BB80E090E0C4
:1001000001C00196883823E19207DCF39F918F911B
:100110002F910F900FBE0F901F9018951F920F9266
:100120000FB60F9211242F938F939F9382B3806801
:1001300082BB80E090E001C00196883823E19207FD
:10014000DCF39F918F912F910F900FBE0F901F9016
:060150001895F894FFCFA2
:00000001FF
