:020000040800F2
:1000000004100020D9000008CD000008CD00000831
:10001000CD000008CD000008CD00000880B483B0FA
:1000200000AF41F21803C4F2020341F21802C4F215
:100030000202126842F004021A6040F60403C4F29D
:10004000010340F60402C4F20102126822F47002B5
:100050001A6040F60403C4F2010340F60402C4F23D
:100060000102126842F400121A604FF000037B6034
:1000700040F20003C2F200031B681A8842F40052E7
:100080001A804FF000037B6003E07B6803F10103FB
:100090007B607A6841F287339A42F6DD40F20003D2
:1000A000C2F200031B681A8822F400521A804FF033
:1000B00000037B6003E07B6803F101037B607A68E7
:1000C00041F287339A42F6DDD2E700BF80B500AF38
:1000D00000F002F880BD00BF80B586B000AF40F2EE
:1000E0000402C2F2000240F20003C2F20003D31A7B
:1000F000BB6040F28813C0F600037B6140F200034E
:10010000C2F200033B614FF00003FB600FE07B692C
:100110001A783B691A703B6903F101033B617B6903
:1001200003F101037B61FB6803F10103FB60FA68E3
:10013000BB689A42EBD340F20402C2F2000240F2E2
:100140000403C2F20003D31A7B6040F20403C2F23C
:1001500000033B614FF00003FB600BE03B694FF095
:1001600000021A703B6903F101033B61FB6803F174
:100170000103FB60FA687B689A42EFD3FFF74EFFFA
:0801800007F11807BD4680BD20
:040188000C0801401E
:0400000508000000EF
:00000001FF
