:100000000C942A000C94AF010C94D6010C94FD01C1
:100010000C9447000C9447000C9447000C94470044
:100020000C9447000C9447000C9447000C94470034
:100030000C9497030C94D1040C94F8040C941F05B1
:100040000C9447000C9447000C9447000C94470014
:100050000C94470011241FBECFE5D8E0DEBFCDBF12
:1000600010E0A0E6B0E0E8ECFDE002C005900D92E3
:10007000A036B107D9F720E0A0E6B0E001C01D929C
:10008000AC38B207E1F70E9465010C94E2060C94CB
:1000900000004BB3982F907F292F30E0359527959E
:1000A000942F9578292B24602BBBE3EDF0E3319757
:1000B000F1F700C000009BB39B7F9BBBEFE4F3EC28
:1000C0003197F1F700C000002BB38F7090E0880FDC
:1000D000991F880F991F880F991F922F9578892B48
:1000E00084608BBB83ED90E30197F1F700C00000C3
:1000F0008BB38B7F8BBBEFE4F3EC3197F1F700C050
:100100000000089587E893E10197F1F700C000002F
:100110008BB38B7F8BBB82E00E94490088E20E94F8
:1001200049008CE00E94490081E00E9449008FE074
:100130000E944900089590E4699F800D1124805821
:100140000E9449000895882309F441C09BB3492FB8
:100150004260982F907F292F30E035952795942F76
:100160009778292B24602BBBE3EDF0E33197F1F76F
:1001700000C000009BB39B7F9BBBEFE4F3EC319787
:10018000F1F700C000009BB3292F22608F7090E030
:10019000880F991F880F991F880F991F922F9778A2
:1001A000892B84608BBB83ED90E30197F1F700C04E
:1001B00000008BB38B7F8BBBEFE4F3EC3197F1F74F
:1001C00000C00000809160008F5F8093600080918C
:1001D0006000803129F461E080E00E949B00089576
:1001E000803249F41092600081E00E94490060E092
:1001F00080E00E949B0008950895089561E670E0F4
:1002000082E790E00E94B504809172000E94A300F2
:1002100061E670E082E790E00E94A60464E770E087
:1002200082E790E00E946B0364E770E082E790E071
:100230000E94430308951F93CF93DF9300D0CDB75F
:10024000DEB711E019831A83BE016F5F7F4F89E328
:1002500090E00E94240282E089831A83BE016F5FCE
:100260007F4F89E390E00E94240283E089831A8310
:10027000BE016F5F7F4F89E390E00E94240284E01B
:1002800089831A83BE016F5F7F4F89E390E00E94EC
:10029000240285E089831A83BE016F5F7F4F89E363
:1002A00090E00E94240286E089831A83BE016F5F7A
:1002B0007F4F89E390E00E9424020E9482000F9009
:1002C0000F90DF91CF911F9108950E941B01E1E6ED
:1002D000F0E01082138283E3868381E0828783E0EB
:1002E00087831582128210862EEF30E034872387B1
:1002F0002CEF30E0368725872DEF30E0308B2787D5
:1003000011868183CF010E94E103E4E7F0E01582CA
:1003100088E0848380E282831682178280E481836E
:1003200080E18383108211861086CF010E94110321
:1003300061E670E082E790E00E94B50461E670E05B
:1003400082E790E00E94A60464E770E082E790E014
:100350000E944303809172000E94A300E9CF1F9284
:100360000F920FB60F9211242F933F934F935F93E9
:100370006F937F938F939F93AF93BF93EF93FF936D
:10038000E0917E00F0917F000995FF91EF91BF9180
:10039000AF919F918F917F916F915F914F913F911D
:1003A0002F910F900FBE0F901F9018951F920F92D4
:1003B0000FB60F9211242F933F934F935F936F9338
:1003C0007F938F939F93AF93BF93EF93FF93E091AE
:1003D0008000F09181000995FF91EF91BF91AF915D
:1003E0009F918F917F916F915F914F913F912F914D
:1003F0000F900FBE0F901F9018951F920F920FB67F
:100400000F9211242F933F934F935F936F937F939A
:100410008F939F93AF93BF93EF93FF93E0918200ED
:10042000F09183000995FF91EF91BF91AF919F915A
:100430008F917F916F915F914F913F912F910F908D
:100440000FBE0F901F901895FC01DB0111962C91A7
:100450001197211120C041815C9181E090E0BC01A5
:10046000052E02C0660F771F0A94E2F730E002C043
:10047000220F331F5A95E2F7362F30953423232B62
:1004800021830C9002C0880F991F0A94E2F7928191
:100490008923828308952230C1F481E090E09C0199
:1004A0000C9002C0220F331F0A94E2F7209531818D
:1004B000232321830C9002C0880F991F0A94E2F72E
:1004C0008095928189238283089541815C9181E0A6
:1004D00090E0052E02C0880F991F0A94E2F730E0E1
:1004E00002C0220F331F5A95E2F780958423282BF0
:1004F00021830895FC01928121E030E0062E02C0A4
:10050000220F331F0A94E2F750E002C0440F551F38
:100510006A95E2F720952923422B42830895FF92A2
:100520000F931F93CF93DF9300D0CDB7DEB78C012D
:10053000FC018381803109F040C085E08983FF247C
:10054000F394FA82BE016F5F7F4F86E390E00E94D2
:10055000240286E0898382E08A83BE016F5F7F4F39
:1005600086E390E00E94240287E08983FA82BE013C
:100570006F5F7F4F86E390E00E94240284E08983CE
:10058000FA82BE016F5F7F4F86E390E00E942402F3
:10059000F8018481883031F441E0698186E390E09C
:1005A0000E947A02F8018481811133C040E06981A0
:1005B00086E390E00E947A022CC081112AC085E077
:1005C000898312E01A83BE016F5F7F4F86E390E05C
:1005D0000E94240286E0898381E08A83BE016F5FE6
:1005E0007F4F86E390E00E94240287E089831A838C
:1005F000BE016F5F7F4F86E390E00E94240284E09B
:1006000089831A83BE016F5F7F4F86E390E00E946B
:1006100024020F900F90DF91CF911F910F91FF90C7
:100620000895CF93DF93EC018881803859F48FB718
:1006300080688FBF88812885398530938500209315
:10064000840001C080E09A818F7D892B9B818F7E01
:10065000892B9C81877F892B9D818B7F892B9E8114
:100660008E7F892B9EB12F819E7F922B9EB98DB953
:10067000CE010E948F028DB199818F7B892B8DB91C
:10068000DF91CF9108950F931F93CF93DF938C0148
:10069000EB018B81811103C0F80180818FB98B81BF
:1006A000803179F440E064E086E390E00E947A02D1
:1006B000F80180818FB941E064E086E390E00E9418
:1006C0007A028881811102C0779BFECFDF91CF91A2
:1006D0001F910F9108950F931F93CF93DF938C0178
:1006E000EB018881811102C0779BFECF8B81803125
:1006F00089F440E064E086E390E00E947A028FB1E2
:1007000090E0F8019183808341E064E086E390E02B
:100710000E947A028B81811105C08FB190E0F801AF
:1007200091838083DF91CF911F910F9108951F9244
:100730000F920FB60F9211242F933F934F935F9315
:100740006F937F938F939F93AF93BF93EF93FF9399
:10075000E0918400F09185000995FF91EF91BF91A0
:10076000AF919F918F917F916F915F914F913F9149
:100770002F910F900FBE0F901F901895CF93DF937E
:1007800000D0CDB7DEB7FC018481813051F48A837B
:100790001982BE016F5F7F4F86E390E00E942402C2
:1007A0000BC0811109C01A821982BE016F5F7F4F91
:1007B00086E390E00E9424020F900F90DF91CF918A
:1007C00008951F93CF93DF93EC018881882351F024
:1007D0008FB780688FBF89818250823018F48AB1C8
:1007E00080688AB980B5806880BD2B8140E4249FF1
:1007F000900111248F7B822B80BD8B81811122C0BF
:100800002BB19D81892F90E0880F991F922F9D7F9A
:10081000892B8BB980B5988540E1949F9001112474
:100820008F7C282B20BD9985892F90E0880F991FF8
:10083000880F991F880F991F277F822B807780BD93
:100840008E8189B98B81813009F044C010B57A85D9
:100850001E7F172B10BD6E8170E080E090E00E943B
:1008600056069B01AC010E9447059B01AC0160E06C
:1008700074E284EF9AE40E94B30520E030E040E0A7
:100880005FE30E9446050E94250669B9812F8F7794
:1008900080BD6E8170E080E090E00E9456069B0172
:1008A000AC010E9447059B01AC0160E074E284EF5B
:1008B0009AE40E94B30520E030E040E05FE30E944C
:1008C00046050E94250610777F70172B10BDCE01BC
:1008D0000E94BE038F81873039F480B5866880BD61
:1008E0008AB184608AB90DC0873059F020B520687C
:1008F00020BD9F81892F90E0880F991F297F822B2F
:1009000080BD8BB19A818E7F892B8BB92AB1998159
:10091000892F90E0880F991F880F991F880F991FC2
:10092000922F977E892B8AB98B859C85E6E8F0E02B
:10093000918380838D859E85938382838F8598891B
:1009400095838483DF91CF911F910895FB012781C7
:10095000273039F43AB1FC0121813E7F2170232BED
:100960002AB9FC0180818CB90895FC01DB018C91CE
:10097000811102C05F9BFECFDB0117968C918730FF
:1009800039F4118210828AB1869581701082818338
:1009900020813181222731708CB1282B3183208333
:1009A00008951F920F920FB60F9211242F933F9329
:1009B0004F935F936F937F938F939F93AF93BF9367
:1009C000EF93FF93E0918600F09187000995FF91E6
:1009D000EF91BF91AF919F918F917F916F915F91B7
:1009E0004F913F912F910F900FBE0F901F90189530
:1009F0001F920F920FB60F9211242F933F934F9394
:100A00005F936F937F938F939F93AF93BF93EF9376
:100A1000FF93E0918800F09189000995FF91EF9193
:100A2000BF91AF919F918F917F916F915F914F9106
:100A30003F912F910F900FBE0F901F9018951F920E
:100A40000F920FB60F9211242F933F934F935F9302
:100A50006F937F938F939F93AF93BF93EF93FF9386
:100A6000E0918A00F0918B000995FF91EF91BF9181
:100A7000AF919F918F917F916F915F914F913F9136
:100A80002F910F900FBE0F901F9018955058BB27B5
:100A9000AA270E945E050C94A8060E949A0638F0C8
:100AA0000E94A10620F039F49F3F19F426F40C941B
:100AB00097060EF4E095E7FB0C949106E92F0E944F
:100AC000B90658F3BA17620773078407950720F031
:100AD00079F4A6F50C94DB060EF4E0950B2EBA2FF4
:100AE000A02D0B01B90190010C01CA01A001112434
:100AF000FF27591B99F0593F50F4503E68F11A16E0
:100B0000F040A22F232F342F4427585FF3CF469570
:100B100037952795A795F0405395C9F77EF41F1692
:100B2000BA0B620B730B840BBAF09150A1F0FF0F5C
:100B3000BB1F661F771F881FC2F70EC0BA0F621F48
:100B4000731F841F48F4879577956795B795F79538
:100B50009E3F08F0B0CF9395880F08F09927EE0FCD
:100B60009795879508950E94C7050C94A8060E9442
:100B7000A10658F00E949A0640F029F45F3F29F040
:100B80000C94910651110C94DC060C9497060E946B
:100B9000B90668F39923B1F3552391F3951B550BCF
:100BA000BB27AA2762177307840738F09F5F5F4F40
:100BB000220F331F441FAA1FA9F335D00E2E3AF07F
:100BC000E0E832D091505040E695001CCAF72BD097
:100BD000FE2F29D0660F771F881FBB1F26173707E8
:100BE0004807AB07B0E809F0BB0B802DBF01FF271A
:100BF00093585F4F3AF09E3F510578F00C94910660
:100C00000C94DC065F3FE4F3983ED4F38695779529
:100C10006795B795F7959F5FC9F7880F911D9695D2
:100C2000879597F90895E1E0660F771F881FBB1F2E
:100C3000621773078407BA0720F0621B730B840BDB
:100C4000BA0BEE1F88F7E09508950E94C10688F060
:100C50009F5798F0B92F9927B751B0F0E1F0660F80
:100C6000771F881F991F1AF0BA95C9F714C0B130C1
:100C700091F00E94DB06B1E008950C94DB06672F2B
:100C8000782F8827B85F39F0B93FCCF386957795F0
:100C90006795B395D9F73EF49095809570956195D9
:100CA0007F4F8F4F9F4F0895E89409C097FB3EF404
:100CB00090958095709561957F4F8F4F9F4F9923A9
:100CC000A9F0F92F96E9BB279395F6958795779527
:100CD0006795B795F111F8CFFAF4BB0F11F460FFE7
:100CE0001BC06F5F7F4F8F4F9F4F16C0882311F03F
:100CF00096E911C0772321F09EE8872F762F05C053
:100D0000662371F096E8862F70E060E02AF09A95ED
:100D1000660F771F881FDAF7880F9695879597F9E2
:100D2000089597F99F6780E870E060E008959FEF6D
:100D300080EC089500240A94161617061806090672
:100D4000089500240A941216130614060506089541
:100D5000092E0394000C11F4882352F0BB0F40F4C9
:100D6000BF2B11F460FF04C06F5F7F4F8F4F9F4F09
:100D7000089557FD9058440F551F59F05F3F71F08B
:100D80004795880F97FB991F61F09F3F79F08795F2
:100D90000895121613061406551FF2CF4695F1DF7B
:100DA00008C0161617061806991FF1CF869571050B
:100DB000610508940895E894BB2766277727CB013F
:080DC00097F90895F894FFCFA4
:00000001FF
