S01200004C43445F4B45595041442E7372656322
S11300000C942A000C9447000C9447000C9447006D
S11300100C9447000C9447000C9447000C94470040
S11300200C9447000C9447000C9447000C94470030
S11300300C9447000C9447000C9447000C94470020
S11300400C9447000C9447000C9447000C94470010
S11300500C94470011241FBECFE5D8E0DEBFCDBF0E
S113006010E0A0E6B0E0E2EAF3E002C005900D92F1
S1130070A037B107D9F720E0A0E7B0E001C01D9296
S1130080A137B207E1F70E94BE010C94CF010C9492
S1130090000081B392B38C6392BB81BB82B393B3F0
S11300A08C6393BB82BB87B398B38F7098BB87BBB9
S11300B088B399B3806F99BB88BB089560E070E002
S11300C081C082B393B38C6393BB82BB22B333B33B
S11300D0FB01EE0FFF1FE05AFF4F81E090E000802C
S11300E002C0880F991F0A94E2F7809590958223A5
S11300F0932393BB82BB40E050E05EC086B397B3CA
S1130100FA01EE0FFF1FE859FF4F21E030E00080B5
S113011002C0220F331F0A94E2F782239323892B10
S113012009F048C086B397B382239323892BD1F374
S113013061307105C9F024F46115710541F03AC0CC
S113014062307105F1F06330710541F133C041153E
S11301505105F1F141305105E9F142305105E1F128
S11301604330510539F53AC041155105C9F14130C3
S11301705105C1F142305105B9F143305105D1F473
S113018035C041155105A1F14130510599F1423075
S1130190510591F14330510569F430C041155105C1
S11301A079F14130510571F14230510569F1433023
S11301B0510561F14F5F5F4F443051050CF49ECF00
S11301C06F5F7F4F643071050CF47BCF80E008953E
S11301D087E3089584E3089581E3089581E208950F
S11301E088E3089585E3089582E3089580E30895FC
S11301F089E3089586E3089583E308958DE30895DC
S11302008FE208958AE208958DE208958BE20895BD
S11302109AB39FEF9ABB9BB39D7F9BBB4BB3982F25
S1130220907F292F30E035952795942F9778292BA7
S11302302BBB9BB394609BBBE3EDF0E33197F1F7E9
S113024000C000009BB39B7F9BBB9BB39D7F9BBB6C
S11302502BB38F7090E0880F991F880F991F880F18
S1130260991F922F9778892B8BBB8BB384608BBBA0
S113027083ED90E30197F1F700C000008BB38B7F0F
S11302808BBB089587E893E10197F1F700C0000064
S11302908AB38FEF8ABB8BB38B7F8BBB82E00E94C8
S11302A0080188E20E9408018CE00E94080181E0B4
S11302B00E9408018FE00E94080108959AB39FEFFD
S11302C09ABB90E4699F800D112480580E94080114
S11302D008959AB39FEF9ABB8823D9F19BB3926098
S11302E09BBB4BB3982F907F292F30E035952795F2
S11302F0942F9778292B2BBB9BB394609BBBE3ED86
S1130300F0E33197F1F700C000009BB39B7F9BBBE8
S11303109BB392609BBB2BB38F7090E0880F991FA7
S1130320880F991F880F991F922F9778892B8BBB61
S11303308BB384608BBB83ED90E30197F1F700C02E
S113034000008BB38B7F8BBB809170008F5F809399
S11303507000809170008F3029F461E080E00E9489
S11303605E0108958E3149F41092700081E00E947C
S1130370080160E080E00E945E0108950E9442014D
S11303800E9449000E945E008823E1F3813221F437
S113039081E00E940801F6CF0E946901F3CFF8942E
S10503A0FFCF89
S11303A20200030004000500040005000600070023
S9030000FC
