S00F0000445249564552532E73726563F6
S11300000C942A000C94AC010C94D3010C94FA01C6
S11300100C9447000C9447000C9447000C94470040
S11300200C9447000C9447000C9447000C94470030
S11300300C9494030C94CE040C94F5040C941C05B9
S11300400C9447000C9447000C9447000C94470010
S11300500C94470011241FBECFE5D8E0DEBFCDBF0E
S113006010E0A0E6B0E0E2ECFDE002C005900D92E5
S1130070A036B107D9F720E0A0E6B0E001C01D9298
S1130080AC38B207E1F70E9476010C94DF060C94B9
S113009000004BB3982F907F292F30E0359527959A
S11300A0942F9578292B24602BBBE3EDF0E3319753
S11300B0F1F700C000009BB39B7F9BBBEFE4F3EC24
S11300C03197F1F700C000002BB38F7090E0880FD8
S11300D0991F880F991F880F991F922F9578892B44
S11300E084608BBB83ED90E30197F1F700C00000BF
S11300F08BB38B7F8BBBEFE4F3EC3197F1F700C04C
S11301000000089587E893E10197F1F700C000002B
S11301108BB38B7F8BBB82E00E94490088E20E94F4
S113012049008CE00E94490081E00E9449008FE070
S11301300E944900089590E4699F800D112480581D
S11301400E9449000895882309F441C09BB3492FB4
S11301504260982F907F292F30E035952795942F72
S11301609778292B24602BBBE3EDF0E33197F1F76B
S113017000C000009BB39B7F9BBBEFE4F3EC319783
S1130180F1F700C000009BB3292F22608F7090E02C
S1130190880F991F880F991F880F991F922F97789E
S11301A0892B84608BBB83ED90E30197F1F700C04A
S11301B000008BB38B7F8BBBEFE4F3EC3197F1F74B
S11301C000C00000809160008F5F80936000809188
S11301D06000803129F461E080E00E949B00089572
S11301E0803249F41092600081E00E94490060E08E
S11301F080E00E949B0008950895089564E770E0EC
S113020082E790E00E94680361E670E082E790E094
S11302100E94A304809172000E94A300089561E6E5
S113022070E082E790E00E94B204809172000E9424
S1130230A30061E670E082E790E00E94A30464E713
S113024070E082E790E00E94680364E770E082E770
S113025090E00E94400308951F93CF93DF9300D052
S1130260CDB7DEB711E019831A83BE016F5F7F4FEC
S113027089E390E00E94210282E089831A83BE010F
S11302806F5F7F4F89E390E00E94210283E08983BE
S11302901A83BE016F5F7F4F89E390E00E942102C1
S11302A084E089831A83BE016F5F7F4F89E390E006
S11302B00E94210285E089831A83BE016F5F7F4F0C
S11302C089E390E00E94210286E089831A83BE01BB
S11302D06F5F7F4F89E390E00E9421020E948200B9
S11302E00F900F90DF91CF911F9108950E942C01E0
S11302F0E1E6F0E01082138283E3868381E0828763
S113030083E087831582128210862FE031E03487E0
S113031023872CEF30E0368725872DEF30E0308BB4
S1130320278711868183CF010E94DE03E4E7F0E092
S1130330158288E0848380E282831682178280E4B7
S11303408183138280E880838EEF90E09187808799
S1130350CF010E940E03FFCF1F920F920FB60F9290
S113036011242F933F934F935F936F937F938F93B6
S11303709F93AF93BF93EF93FF93E0917E00F0912F
S11303807F000995FF91EF91BF91AF919F918F915C
S11303907F916F915F914F913F912F910F900FBE7D
S11303A00F901F9018951F920F920FB60F92112461
S11303B02F933F934F935F936F937F938F939F9369
S11303C0AF93BF93EF93FF93E0918000F09181008E
S11303D00995FF91EF91BF91AF919F918F917F917B
S11303E06F915F914F913F912F910F900FBE0F909E
S11303F01F9018951F920F920FB60F9211242F93EE
S11304003F934F935F936F937F938F939F93AF9398
S1130410BF93EF93FF93E0918200F09183000995DD
S1130420FF91EF91BF91AF919F918F917F916F91C8
S11304305F914F913F912F910F900FBE0F901F909E
S11304401895FC01DB0111962C911197211120C004
S113045041815C9181E090E0BC01052E02C0660FF1
S1130460771F0A94E2F730E002C0220F331F5A9537
S1130470E2F7362F30953423232B21830C9002C0CE
S1130480880F991F0A94E2F7928189238283089541
S11304902230C1F481E090E09C010C9002C0220F54
S11304A0331F0A94E2F720953181232321830C9092
S11304B002C0880F991F0A94E2F7809592818923DC
S11304C08283089541815C9181E090E0052E02C011
S11304D0880F991F0A94E2F730E002C0220F331FFD
S11304E05A95E2F780958423282B21830895FC01F3
S11304F0928121E030E0062E02C0220F331F0A94BD
S1130500E2F750E002C0440F551F6A95E2F72095C8
S11305102923422B42830895FF920F931F93CF9375
S1130520DF9300D0CDB7DEB78C01FC01838180312D
S113053009F040C085E08983FF24F394FA82BE0168
S11305406F5F7F4F86E390E00E94210286E08983FB
S113055082E08A83BE016F5F7F4F86E390E00E9452
S1130560210287E08983FA82BE016F5F7F4F86E3B1
S113057090E00E94210284E08983FA82BE016F5FC9
S11305807F4F86E390E00E942102F8018481883045
S113059031F441E0698186E390E00E947702F8013A
S11305A08481811133C040E0698186E390E00E9438
S11305B077022CC081112AC085E0898312E01A8356
S11305C0BE016F5F7F4F86E390E00E94210286E0C8
S11305D0898381E08A83BE016F5F7F4F86E390E069
S11305E00E94210287E089831A83BE016F5F7F4FD7
S11305F086E390E00E94210284E089831A83BE018D
S11306006F5F7F4F86E390E00E9421020F900F906E
S1130610DF91CF911F910F91FF900895CF93DF93B6
S1130620EC018881803859F48FB780688FBF888146
S113063028853985309385002093840001C080E0AB
S11306409A818F7D892B9B818F7E892B9C81877FCB
S1130650892B9D818B7F892B9E818E7F892B9EB1D7
S11306602F819E7F922B9EB98DB9CE010E948C0260
S11306708DB199818F7B892B8DB9DF91CF910895AD
S11306800F931F93CF93DF938C01EB018B81811127
S113069003C0F80180818FB98B81803179F440E007
S11306A064E086E390E00E947702F80180818FB9CC
S11306B041E064E086E390E00E9477028881811142
S11306C002C0779BFECFDF91CF911F910F910895C8
S11306D00F931F93CF93DF938C01EB0188818111DA
S11306E002C0779BFECF8B81803189F440E064E0C7
S11306F086E390E00E9477028FB190E0F801918345
S1130700808341E064E086E390E00E9477028B817D
S1130710811105C08FB190E0F80191838083DF914E
S1130720CF911F910F9108951F920F920FB60F92C0
S113073011242F933F934F935F936F937F938F93E2
S11307409F93AF93BF93EF93FF93E0918400F09155
S113075085000995FF91EF91BF91AF919F918F9182
S11307607F916F915F914F913F912F910F900FBEA9
S11307700F901F901895CF93DF9300D0CDB7DEB7BD
S1130780FC018481813051F48A831982BE016F5F38
S11307907F4F86E390E00E9421020BC0811109C0C3
S11307A01A821982BE016F5F7F4F86E390E00E9438
S11307B021020F900F90DF91CF9108951F93CF9353
S11307C0DF93EC018881882351F08FB780688FBF55
S11307D089818250823018F48AB180688AB980B5E0
S11307E0806880BD2B8140E4249F900111248F7B7D
S11307F0822B80BD8B81811122C02BB19D81892FD9
S113080090E0880F991F922F9D7F892B8BB980B51B
S1130810988540E1949F900111248F7C282B20BD62
S11308209985892F90E0880F991F880F991F880F49
S1130830991F277F822B807780BD8E8189B98B8118
S1130840813009F044C010B57A851E7F172B10BD86
S11308506E8170E080E090E00E9453069B01AC0141
S11308600E9444059B01AC0160E074E284EF9AE4C9
S11308700E94B00520E030E040E05FE30E944305C1
S11308800E94220669B9812F8F7780BD6E8170E046
S113089080E090E00E9453069B01AC010E94440555
S11308A09B01AC0160E074E284EF9AE40E94B0051D
S11308B020E030E040E05FE30E9443050E9422060E
S11308C010777F70172B10BDCE010E94BB038F8160
S11308D0873039F480B5866880BD8AB184608AB96E
S11308E00DC0873059F020B5206820BD9F81892F25
S11308F090E0880F991F297F822B80BD8BB19A814C
S11309008E7F892B8BB92AB19981892F90E0880F2A
S1130910991F880F991F880F991F922F977E892BF3
S11309208AB98B859C85E6E8F0E0918380838D8588
S11309309E85938382838F85988995838483DF91B1
S1130940CF911F910895FB012781273039F43AB1E3
S1130950FC0121813E7F2170232B2AB9FC01808177
S11309608CB90895FC01DB018C91811102C05F9B5D
S1130970FECFDB0117968C91873039F411821082F7
S11309808AB18695817010828183208131812227EA
S113099031708CB1282B3183208308951F920F92DC
S11309A00FB60F9211242F933F934F935F936F933E
S11309B07F938F939F93AF93BF93EF93FF93E091B4
S11309C08600F09187000995FF91EF91BF91AF9157
S11309D09F918F917F916F915F914F913F912F9153
S11309E00F900FBE0F901F9018951F920F920FB685
S11309F00F9211242F933F934F935F936F937F93A1
S1130A008F939F93AF93BF93EF93FF93E0918800ED
S1130A10F09189000995FF91EF91BF91AF919F915A
S1130A208F917F916F915F914F913F912F910F9093
S1130A300FBE0F901F9018951F920F920FB60F9232
S1130A4011242F933F934F935F936F937F938F93CF
S1130A509F93AF93BF93EF93FF93E0918A00F0913C
S1130A608B000995FF91EF91BF91AF919F918F9169
S1130A707F916F915F914F913F912F910F900FBE96
S1130A800F901F9018955058BB27AA270E945B050A
S1130A900C94A5060E94970638F00E949E0620F04A
S1130AA039F49F3F19F426F40C9494060EF4E0955F
S1130AB0E7FB0C948E06E92F0E94B60658F3BA178A
S1130AC0620773078407950720F079F4A6F50C9460
S1130AD0D8060EF4E0950B2EBA2FA02D0B01B90108
S1130AE090010C01CA01A0011124FF27591B99F0A0
S1130AF0593F50F4503E68F11A16F040A22F232FAC
S1130B00342F4427585FF3CF469537952795A795FB
S1130B10F0405395C9F77EF41F16BA0B620B730BA2
S1130B20840BBAF09150A1F0FF0FBB1F661F771F13
S1130B30881FC2F70EC0BA0F621F731F841F48F4C8
S1130B40879577956795B795F7959E3F08F0B0CF51
S1130B509395880F08F09927EE0F97958795089538
S1130B600E94C4050C94A5060E949E0658F00E949B
S1130B70970640F029F45F3F29F00C948E0651113A
S1130B800C94D9060C9494060E94B60668F3992333
S1130B90B1F3552391F3951B550BBB27AA27621775
S1130BA07307840738F09F5F5F4F220F331F441F82
S1130BB0AA1FA9F335D00E2E3AF0E0E832D09150B6
S1130BC05040E695001CCAF72BD0FE2F29D0660FA3
S1130BD0771F881FBB1F261737074807AB07B0E8E6
S1130BE009F0BB0B802DBF01FF2793585F4F3AF0EC
S1130BF09E3F510578F00C948E060C94D9065F3F05
S1130C00E4F3983ED4F3869577956795B795F79571
S1130C109F5FC9F7880F911D9695879597F9089559
S1130C20E1E0660F771F881FBB1F621773078407F5
S1130C30BA0720F0621B730B840BBA0BEE1F88F704
S1130C40E09508950E94BE0688F09F5798F0B92F4A
S1130C509927B751B0F0E1F0660F771F881F991FED
S1130C601AF0BA95C9F714C0B13091F00E94D806B1
S1130C70B1E008950C94D806672F782F8827B85FC1
S1130C8039F0B93FCCF3869577956795B395D9F745
S1130C903EF490958095709561957F4F8F4F9F4F4F
S1130CA00895E89409C097FB3EF49095809570955B
S1130CB061957F4F8F4F9F4F9923A9F0F92F96E9A4
S1130CC0BB279395F695879577956795B795F11119
S1130CD0F8CFFAF4BB0F11F460FF1BC06F5F7F4FB6
S1130CE08F4F9F4F16C0882311F096E911C07723C8
S1130CF021F09EE8872F762F05C0662371F096E8D1
S1130D00862F70E060E02AF09A95660F771F881F9F
S1130D10DAF7880F9695879597F9089597F99F675D
S1130D2080E870E060E008959FEF80EC089500246F
S1130D300A941616170618060906089500240A943C
S1130D4012161306140605060895092E0394000CC2
S1130D5011F4882352F0BB0F40F4BF2B11F460FF51
S1130D6004C06F5F7F4F8F4F9F4F089557FD90587A
S1130D70440F551F59F05F3F71F04795880F97FB5B
S1130D80991F61F09F3F79F0879508951216130615
S1130D901406551FF2CF4695F1DF08C01616170644
S1130DA01806991FF1CF8695710561050894089579
S1130DB0E894BB2766277727CB0197F90895F89421
S1050DC0FFCF5F
S9030000FC
