S00F0000445249564552532E73726563F6
S11300000C942A000C9421010C9448010C946F0167
S11300100C9447000C9447000C9447000C94470040
S11300200C9447000C9447000C9447000C94470030
S11300300C94D0020C94F7020C941E030C94450308
S11300400C9447000C9447000C9447000C94470010
S11300500C94470011241FBECFE5D8E0DEBFCDBF0E
S113006010E0A0E6B0E0ECEDF6E002C005900D92E1
S1130070A036B107D9F720E0A0E6B0E001C01D9298
S1130080A838B207E1F70E949B000C946C030C940F
S113009000000F931F93CF93DF93082F162FEA01CD
S11300A064E086E390E00E940102BE01802F0E947A
S11300B0C102BE01812F0E94C10264E086E390E088
S11300C00E940102DF91CF911F910F910895CF9368
S11300D0DF93EC018AE0FB01A0E6B0E001900D9211
S11300E08A95E1F740E650E0698189E00E94490081
S11300F040E650E06A818AE00E94490040E650E010
S11301006B818BE00E94490040E650E068818CE0FE
S11301100E944900DF91CF91089540E650E00E948B
S113012049002FED82E292E0215080409040E1F7B7
S113013000C000000895ECE6F0E0158288E08483B6
S113014012821682178280E4818380E18383108285
S113015011861086CF010E948F0264E086E390E04E
S11301600E9401026CE670E089E00E94C1026CE624
S113017070E08FEF0E94C10264E086E390E00E9489
S11301800102E6E7F0E081E080838FEF81838FE076
S1130190828387E083836CE670E0CF010E9467006E
S11301A06FE081E00E948D006FE082E00E948D008C
S11301B06FE083E00E948D006FE084E00E948D0078
S11301C06FE085E00E948D006FE086E00E948D0064
S11301D06FE087E00E948D006FE088E00E948D0050
S11301E06CE083E00E948D006BE084E00E948D004F
S11301F06DE085E00E948D006EE086E00E948D0037
S11302006FE081E00E948D006FE082E00E948D002B
S11302106FE083E00E948D006FE084E00E948D0017
S11302206FE085E00E948D006FE086E00E948D0003
S11302306FE087E00E948D006FE088E00E948D00EF
S1130240CFCF1F920F920FB60F9211242F933F938B
S11302504F935F936F937F938F939F93AF93BF93CA
S1130260EF93FF93E0917A00F0917B000995FF9161
S1130270EF91BF91AF919F918F917F916F915F911A
S11302804F913F912F910F900FBE0F901F90189593
S11302901F920F920FB60F9211242F933F934F93F7
S11302A05F936F937F938F939F93AF93BF93EF93DA
S11302B0FF93E0917C00F0917D000995FF91EF910F
S11302C0BF91AF919F918F917F916F915F914F916A
S11302D03F912F910F900FBE0F901F9018951F9272
S11302E00F920FB60F9211242F933F934F935F9366
S11302F06F937F938F939F93AF93BF93EF93FF93EA
S1130300E0917E00F0917F000995FF91EF91BF91FC
S1130310AF919F918F917F916F915F914F913F9199
S11303202F910F900FBE0F901F901895FC01DB01C9
S113033011962C911197211120C041815C9181E08B
S113034090E0BC01052E02C0660F771F0A94E2F705
S113035030E002C0220F331F5A95E2F7362F309552
S11303603423232B21830C9002C0880F991F0A94F5
S1130370E2F792818923828308952230C1F481E0D7
S113038090E09C010C9002C0220F331F0A94E2F704
S113039020953181232321830C9002C0880F991F5B
S11303A00A94E2F78095928189238283089541819A
S11303B05C9181E090E0052E02C0880F991F0A9499
S11303C0E2F730E002C0220F331F5A95E2F780951E
S11303D08423282B21830895FC01928121E030E0BD
S11303E0062E02C0220F331F0A94E2F750E002C027
S11303F0440F551F6A95E2F720952923422B428327
S1130400089521E030E002C0220F331F6A95E2F71D
S1130410FC013281232722830895FF920F931F93B7
S1130420CF93DF9300D0CDB7DEB78C01FC0183817D
S1130430803109F040C085E08983FF24F394FA8277
S1130440BE016F5F7F4F86E390E00E94960186E0D5
S1130450898382E08A83BE016F5F7F4F86E390E0E9
S11304600E94960187E08983FA82BE016F5F7F4F05
S113047086E390E00E94960184E08983FA82BE01BB
S11304806F5F7F4F86E390E00E949601F8018481BC
S1130490883031F441E0698186E390E00E94EC0108
S11304A0F8018481811133C040E0698186E390E0E2
S11304B00E94EC012CC081112AC085E0898312E0DE
S11304C01A83BE016F5F7F4F86E390E00E9496011E
S11304D086E0898381E08A83BE016F5F7F4F86E374
S11304E090E00E94960187E089831A83BE016F5FC2
S11304F07F4F86E390E00E94960184E089831A830B
S1130500BE016F5F7F4F86E390E00E9496010F90DB
S11305100F90DF91CF911F910F91FF900895CF938A
S1130520DF93EC018881803859F48FB780688FBFDE
S1130530888128853985309381002093800001C00B
S113054080E09A818F7D892B9B818F7E892B9C8172
S1130550877F892B9D818B7F892B9E818E7F892B21
S11305609EB12F819E7F922B9EB98DB9CE010E94A0
S11305700D028DB199818F7B892B8DB9DF91CF913C
S11305800895FB019381911101C08FB9938190313A
S113059009F48FB98081811102C0779BFECF089541
S11305A01F920F920FB60F9211242F933F934F93E4
S11305B05F936F937F938F939F93AF93BF93EF93C7
S11305C0FF93E0918000F09181000995FF91EF91F4
S11305D0BF91AF919F918F917F916F915F914F9157
S11305E03F912F910F900FBE0F901F9018951F925F
S11305F00F920FB60F9211242F933F934F935F9353
S11306006F937F938F939F93AF93BF93EF93FF93D6
S1130610E0918200F09183000995FF91EF91BF91E1
S1130620AF919F918F917F916F915F914F913F9186
S11306302F910F900FBE0F901F9018951F920F923D
S11306400FB60F9211242F933F934F935F936F93A1
S11306507F938F939F93AF93BF93EF93FF93E09117
S11306608400F09185000995FF91EF91BF91AF91BE
S11306709F918F917F916F915F914F913F912F91B6
S11306800F900FBE0F901F9018951F920F920FB6E8
S11306900F9211242F933F934F935F936F937F9304
S11306A08F939F93AF93BF93EF93FF93E091860053
S11306B0F09187000995FF91EF91BF91AF919F91C0
S11306C08F917F916F915F914F913F912F910F90F7
S10F06D00FBE0F901F901895F894FFCFF8
S9030000FC
